:020000040800F2
:100000007008002001010008BF2400080523000833
:10001000BD240008E50F0008F52C000800000000D2
:100020000000000000000000000000002F27000872
:10003000E70F0008000000002D2700083127000806
:100040001B0100081B0100081B0100081B01000820
:100050001B0100081B0100081B0100081B01000810
:100060001B0100081B0100081B0100081B01000800
:100070001B0100081B0100081B0100081B010008F0
:100080001B0100081B0100081B0100081B010008E0
:100090001B0100081B0100081B0100081B010008D0
:1000A0001B0100081B0100081B0100081B010008C0
:1000B0001B0100081B0100081B0100081B010008B0
:1000C0001B0100081B0100081B0100081B010008A0
:1000D0001B010008E92C00081B0100081B01000897
:1000E0001B0100081B0100081B010008DFF80CD0F1
:1000F00000F0FCFE00480047653900087008002049
:100100000648804706480047FEE7FEE7FEE7FEE7B1
:10011000FEE7FEE7FEE7FEE7FEE7FEE793270008BF
:10012000ED000008202A04DB203A21FA02F0002129
:10013000704721FA02F3D040C2F1200291400843F7
:1001400019467047A0F14101192900D820307047A5
:1001500040EA01039B0703D009E008C9121F08C049
:10016000042AFAD203E011F8013B00F8013B521EC9
:10017000F9D27047D2B201E000F8012B491EFBD240
:1001800070470022F6E710B513460A4604461946A2
:10019000FFF7F0FF204610BD421C10F8011B00299C
:1001A000FBD1801A704710B5002200E0521C835C1E
:1001B0008C5CA34201D1002BF8D1D8B2E1B2401A35
:1001C00010BD30B505460020034600E05B1C93429D
:1001D00005D2EC5CC85C201A01D1002CF6D130BDF0
:1001E0002DE9FF4F087883B09946FF2805D0491CB8
:1001F0002D2804D00024002008E000200BE001247A
:10020000F9E700EB800003EB4000491C0B78FF2B63
:10021000F7D104B1404200230293147819461D46D9
:100220002D2C01D02B2C04D1521C2D2C13D00024AA
:100230000294AA461478FF2C0FD00A25A3FB057858
:1002400001FB05814FF0000C03FB0C11521CE3195C
:100250004AEB0101EEE70124EAE7814453EA010099
:1002600002D019F5C87F06DA03980021C0E9001111
:1002700007B0BDE8F08F0025AE4E2F46DFF8B882FC
:10028000184600F00EFECDE90001B9F1000002DAD7
:10029000C9F1000400E004460023A74A1AEB030B4F
:1002A00042EB045A12E0E00707D02A4633463846AC
:1002B000414600F015FD074688462A46334610465B
:1002C000194600F00DFD05460E466410002CEAD1DB
:1002D000DDE90001B9F1000F5A46534606DA00F095
:1002E00071FD3A46434600F06DFD05E000F0F8FC74
:1002F0003A46434600F0F4FC029A0AB181F000410C
:10030000039AC2E90001B3E72DE9FF4F1F468DB004
:10031000D7E901464FF0FF382E2045464FF000093F
:100320000B90B9696D1C0E988847396A82468847D8
:100330000028F6D1BAF1FF3F0AD024F4D064002E91
:1003400011DDBAF12B0F08D0BAF12D0F0BD102E05D
:10035000404611B08DE744F48064B9696D1C0E9875
:1003600088478246761E6946600501D52D2000E04B
:100370002B208DF8000001F1010B0DF1200809E0A0
:10038000B9696D1C0E98884782460F9844F4007432
:10039000761E0560002E02DDBAF1300FF0D00B9909
:1003A0008A453ED144F0800406E00F99681CA9F10B
:1003B000010944F400740860B9696D1C761E0E983A
:1003C000884782463028F0D02BE00B998A4505D12A
:1003D000200603D444F08004761E18E0504602F054
:1003E000D7FD08B30DF11301761E44F400748B455C
:1003F00008D2AAF130000BF8010B200607D5A9F1AD
:10040000010003E0200602D409F101008146A005A5
:1004100002D50F99681C0860B9696D1C0E98884751
:100420008246002ED1DC53E0002E51DDBAF1650F7B
:1004300002D0BAF1450F4BD1A00549D5B9696D1C61
:1004400024F44074761E0E9888478246002E0CDDF8
:100450002B2804D0BAF12D0F07D144F48074B96968
:100460006D1C0E9888478246761EE00501D52D2129
:1004700000E02B2108F8011BCDF82C8021E00DF1C4
:100480002901761E44F4007488450CD2AAF130008C
:1004900010F0FF0088F8000002D10B99884509D9B7
:1004A00008F1010806E0E00501D5244801E042F228
:1004B0000F708146B9696D1C0E98884782460F9867
:1004C0000560002E04DD504602F062FD0028D6D102
:1004D000F9690E988847FF208BF8000088F8000023
:1004E0000020069007904B466A4608A906A8FFF729
:1004F00077FEA00502D46FF001002AE714F0240F64
:100500000AD0E00714D1DDE906123868031D3B600C
:100510000068C0E900120BE0DDE9060100F00EFA08
:100520000146E00704D13868021D3A6000680160A6
:1005300028460EE7000014400000F03FF1D8FFFF0E
:1005400070B5064602F0F8FB046805460A22002151
:10055000304600F0F9FA2C6070BDF0B480EA010278
:10056000D40F4200B2EB410F02D2024608461146B8
:100570004A0042D0C30DDDB2C1F3C752AD1A202DDF
:1005800035DAC1F3160141F4000204B15242C5F15B
:10059000200602FA06F12A411044B3EBD05F23D0C3
:1005A000C4B1012DA0EBC35009DCF0BC4FF00042F8
:1005B00002EAC352DBB200F5000000F006BB4000C7
:1005C00000F1807000EBC350A0F1807040EAD17060
:1005D000490009E0490841EAC071A0EBC35000F5A9
:1005E0000000400800EBC350F0BC00F0E5BA6142E7
:1005F000012202EB4101001BF6E7F0BC704781F0DD
:100600000041AAE780F00040A7E780EA010210B5A8
:1006100002F00043400022D04A001FD0010E01EB3F
:100620001261C0F35600C2F3560240F4000042F4D7
:100630000002A0FB022000047F39140400D0401CFB
:1006400050EA124001D44000491EC2B20C0604EB2D
:10065000D010401C4008802A02D003E0002010BDCA
:1006600020F00100002900DA0020184310BD30B44A
:1006700080EA010202F0004530F0004221F0004023
:1006800013D090B1C30DD40DC2F31601C0F3160000
:10069000E41A41F4000140F400027D34914201D398
:1006A000641C00E04900002C02DA30BC00207047D6
:1006B0004FF400000023914201D3891A03434008FC
:1006C0004FEA4101F7D151B1914202D14FF00041BF
:1006D00005E002D24FF0010101E06FF0010103EBF0
:1006E000C450284430BC00F067BA2DE9FE4F804664
:1006F00081EA0300C00F0C46009021F0004123F076
:100700000045B8EB0200A94105D24046214690467B
:100710001C460B46024623F00040104347D0270DED
:10072000C7F30A00C3F30A510290401A019040280F
:100730006BDAC3F3130040F4801B0098924620B19B
:100740000023D2EB030A63EB0B0B01985946C0F16F
:100750004002504600F069F906460D46504659469B
:10076000019A00F071F910EB08006141002487EA5A
:10077000115284EAE7731A4340D0009A62B3019A97
:10078000012A4FEA075215DC001B61EB02014FF012
:10079000004202EA0752CDE90042001C41F58011F7
:1007A00032462B4600F04EFA03B0BDE8F08F4046CB
:1007B0002146F9E7001B61EB0201001C41F58013A3
:1007C00000185B412018A2F5001747EB030140EA2F
:1007D000D570B6196D4111E06D084FEA360645EA4D
:1007E000C0754FEA0752001B61EB0201001C41F586
:1007F000801149084FEA30000019514132462B461A
:1008000003B0BDE8F04F00F00EBA0098012240009E
:100810000023D0EB020263EBE073009821464FEA1D
:10082000E074B8EB000061EB0401E9E783F00043FA
:100830005BE781F0004158E7C10F80EAE0700844AF
:10084000CA079623002100F0C0B90EB5C10F80EA97
:10085000E0700844CA07002140F233438DE80E00DF
:100860000A460B4600F0EEF903B000BD00F000426E
:1008700020F00040C10DC0F3160040F400007F29B5
:1008800001DA00207047962903DCC1F19601C840C7
:1008900001E096398840002AF4D04042704770B594
:1008A000C1F30A5201F000450024C1F3130140F2E4
:1008B000FF3341F480119A4201DA002070BD40F20A
:1008C00033439A42A2F2334203DC5242FFF72AFC3E
:1008D00000E090402C43F1D0404270BD30B5041E82
:1008E00071F1000404DB4FF00044404264EB01016D
:1008F000141E73F1000405DB1C464FF00043524206
:1009000063EB04038B4208BF824230BD30B5041E46
:1009100071F1000404DB4FF00044404264EB01013C
:10092000141E73F1000405DB1C464FF000435242D5
:1009300063EB0403994208BF904230BD01F00043CD
:1009400030B421F0004150EA010206D00A0DA2F5B0
:100950006072C1F31301002A02DC30BC0020704732
:10096000440F44EAC104C100E01830BC00EBC2509F
:1009700000F022B9002801DBC0F10040002901DBB2
:10098000C1F1004181427047002801DBC0F1004005
:10099000002901DBC1F100418842704730B50B46A8
:1009A000014600202022012409E021FA02F59D429F
:1009B00005D303FA02F5491B04FA02F52844151E73
:1009C000A2F10102F1DC30BD2DE9F05F0546002007
:1009D00092469B4688460646814640241BE02846B0
:1009E000414647462246FFF79DFB53465A46C01AEA
:1009F000914110D311461846224600F016F82D1AE0
:100A000067EB01084F4622460120002100F00DF857
:100A100017EB00094E41201EA4F10104DFDC48461B
:100A200031462A464346BDE8F09F202A04DB203A9F
:100A300000FA02F1002070479140C2F1200320FA31
:100A400003F3194390407047202A06DBCB17203A66
:100A500041FA02F043EAE07306E041FA02F3D040C3
:100A6000C2F120029140084319467047426842B1E2
:100A7000016811F8013B23B1521EC0E9001218466B
:100A800070470121C160881E704742685AB1C3682F
:100A9000016843B983688B4205D0491E521CC0E9E6
:100AA0000012002070474FF0FF3070470FB4002352
:100AB00000B589B00CA900910B996FF00042CB6092
:100AC0001E4B06931E4B07930423CDE901321D4AAA
:100AD000089202466B460020FFF716FC09B05DF84D
:100AE00014FB70B586B006464FF0FF300091CDE99B
:100AF0000101002015460C4604903246694604A8C0
:100B0000FFF7D4FF02460498211825B108B1084622
:100B100000E020462860049800280DD0002A02DD5D
:100B20000098884208D0081B0094CDE901043246A1
:100B3000694604A8FFF7BAFF06B070BD6D0A000849
:100B40008B0A0008190F00082DE9F04791460F465F
:100B500080460446002614F8015B2DB100F0D8F958
:100B60000068405DC007F6D12B2D02D02D2D18D086
:100B7000641E4A463946204600F0D7F927B1396845
:100B8000A14201D1C7F8008071054FF002040BD5D6
:100B90004042002803DD02F0CFF80460A007BDE862
:100BA000F08746F48066E4E70028F8DA02F0C4F83B
:100BB00004606FF00040F2E70029A8BF7047401CB6
:100BC000490008BF20F00100704710B4B0FA80FC63
:100BD00000FA0CF050EA010404BF10BC704749B1A0
:100BE000CCF1200421FA04F411FA0CF118BF012110
:100BF00021430843A3EB0C01CB1D4FEA00614FEAF0
:100C0000102042BF002010BC704700EBC3501044BE
:100C10000029A4BF10BC7047401C490008BF20F049
:100C2000010010BC704710B5141E73F1000408DAFF
:100C3000401C41F1000192185B411A4301D120F0A0
:100C4000010010BD2DE9F04D92469B4611B1B1FA5D
:100C500081F202E0B0FA80F220329046FFF7E5FE22
:100C600004460F4640EA0A0041EA0B0153465A4641
:100C7000084313D0114653EA010019D0C8F14002CD
:100C80005046FFF74FFA05460E4650465946424633
:100C9000FFF7CBFE084305D0012004E0204639468B
:100CA000BDE8F08D0020054346EAE0762C4337434B
:100CB0000A986305E40AA0EB08000022FD0A44EA52
:100CC00047540A3002D500200146E9E70105101912
:100CD0006941DDE9084500196941BDE8F04DA2E729
:100CE0002DE9FE4F81EA030404F0004421F00041A5
:100CF00000944FF0000B23F0004350EA01045ED053
:100D000052EA03045BD0C3F30A54C1F30A552C44DE
:100D1000A4F2F3340194A0FB0254C1F3130141F493
:100D20008011C3F3130343F4801301FB024400FB5F
:100D3000034E840A970A44EA815447EA8357A4FB86
:100D4000076802958D0A05FB07854FEA932C04FB83
:100D50000C542705029D4FEA065847EA1637B5EBB3
:100D600008056EEB070C870E920E47EA811742EAE0
:100D70008312A7FB0201B6EB0B0164EB00042B0D01
:100D800043EA0C335E1844EB1C50DA465146E7FB4D
:100D90000201C5F313044FEA0B3343EA14534FEA3D
:100DA0000432019C43EA0603A4F10C040294009C63
:100DB000CDE900B4FFF746FF03B0BDE8F08F002097
:100DC0000146F9E72DE9F04D81EA030404F0004BF8
:100DD00021F0004514464FF0000A23F0004150EA8C
:100DE000050220D054EA01021DD0C5F30A5702467D
:100DF000C5F31303C1F31300C1F30A5640F4801581
:100E000043F48013A7EB0608101BD64608F2FD3802
:100E100073EB050002D308F1010801E092185B4171
:100E2000B8F1000F03DA00200146BDE8F08D002084
:100E30004FF48011064684460EE0171B73EB05073E
:100E400005D3121B63EB050306434CEA010C49086A
:100E50004FEA300092185B4150EA0107EDD152EAA7
:100E6000030012D082EA040083EA0501084305D09A
:100E7000101BAB4106D20122002306E000224FF0F6
:100E8000004302E06FF0010253101AEB06004CEB36
:100E9000085110EB0A0041EB0B01BDE8F04DFFF7E4
:100EA000C2BE0EB540F2334202920022CDE90022CA
:100EB0001346FFF7C7FE03B000BDC1F30A52C1F3EA
:100EC000130140F2FF3341F480119A4202DA00200C
:100ED0000146704740F233439A42A2F2334202DCA9
:100EE0005242FFF71FB9FFF7A0BD0000064C074DA7
:100EF00006E0E06840F0010394E8070098471034EA
:100F0000AC42F6D3FFF7F6F84C4100086C410008FC
:100F1000004870474841000810B50446FFF7F8FF45
:100F20000068005D00F0010010BD2DE9F05F824611
:100F30000078002715468B460AF10104B94630288F
:100F400001D09DB113E014F8010B0127782803D0DC
:100F5000582801D045B10AE00DB1102D07D1002766
:100F6000102514F8010B02E0082500E00A250026F0
:100F7000B0460EE005FB080005FB06F1012701EB7A
:100F800010461FFA80F8B6F5803F00D3B94614F832
:100F9000010B294600F018F80028EBDABBF1000F2E
:100FA00005D00FB1641E00E05446CBF80040B9F103
:100FB000000F06D001F0C0FE02210160C81EBDE88E
:100FC000F09F48EA0640FAE73A2800D2303820F08D
:100FD0002002412A01D3A2F13700884201D34FF009
:100FE000FF307047FEE7704770B54FF0804002F069
:100FF00049FC0B4C616A45186562A06A281A00D545
:10100000404242F6E061606148434FF4A56190FBC5
:10101000F1F0FFF71AFCA562C4E9100170BD0000F1
:101020000000002010B590F821100022022905D000
:101030000421816380F82020012010BD01680B6825
:1010400023F00E030B6001680B6823F001030B60B3
:1010500090F84030C46B012101FA03F3636080F81B
:10106000211080F82020104610BD000010B590F827
:1010700021100024022903D00421816301243DE0D2
:1010800001680A6822F00E020A6001680A6822F00C
:1010900001020A601A4A0168914201D1012121E04E
:1010A000174A1432914201D110211BE0144A283210
:1010B000914201D1891515E0114A3C32914201D18A
:1010C00089140FE00E4A5032914202D14FF4803120
:1010D00008E00B4A6432914202D14FF4801101E0E2
:1010E0004FF08071064A083A5160012180F82110C2
:1010F000002180F82010416B01B18847204610BDC7
:10110000080002402DE9F84FDFF8B891002409F1FA
:10111000040A0AF1040B23460F270BF1040EC9E061
:101120000125A5402A40AA427DD1674ED1F804C0CE
:10113000ACEB0608B44532D014DCBCF1030F3AD056
:1011400009DCBCF1000F2AD0BCF1010F1CD0BCF1AE
:10115000020F31D11DE0BCF1110F17D0BCF1120FFD
:101160002AD119E0B8F5881F19D006DCB8F5803F00
:1011700015D0B8F5801F1FD111E0B8F5001F0ED0B3
:10118000B8F5041F18D10AE0CB6815E0CB681B1D29
:1011900012E0CB6808330FE0CB680C330CE08B68AF
:1011A0002BB1012B4FF0080303D0456104E0042369
:1011B00002E0056100E00023FF2A01D8064601E0B5
:1011C00000F104064FEA840501D9A5F12005D6F8FF
:1011D000008007FA05FC28EA0C0803FA05F548EA3E
:1011E0000508C6F800804D68ED0062D5374DAE6940
:1011F00046F00106AE61AD6924F0030605F0010575
:101200000095334D06EB050CDCF80850A607360FA9
:1012100007FA06F825EA0805DFF8B880404503D14B
:101220004FF0000817E044E0DFF8AC80404502D101
:101230004FF001080FE0DFF8A480404502D14FF0E5
:10124000020808E0DFF89880404502D14FF003081B
:1012500001E04FF0040808FA06F848EA0508CCF85F
:1012600008804D68D9F80060ED034D4601D516435E
:1012700000E096432E604D68DAF80060AD035546F5
:1012800001D5164300E096432E604D68DBF8006000
:10129000ED025D4601D5164300E096432E604D6891
:1012A000DEF80060AD02754601D5164300E09643B6
:1012B0002E60641C0D682A46E5407FF431AFBDE81E
:1012C000F88F0000000401400000111000100240DF
:1012D0000000014000080140000C014000100140E6
:1012E000001401400AB1016170470904FBE70000E6
:1012F0000148806870470000600000200248816853
:10130000027811448160704760000020074810B5E2
:10131000016841F010010160032000F075F8002021
:1013200000F006F800F024F8002010BD0020024074
:1013300070B50D4D04464FF47A712878B1FBF0F08A
:101340000A490968B1FBF0F000F0ECFA48B9102C3A
:1013500007D200222146501E00F036F800206C60B3
:1013600070BD012070BD0000600000206C000020F6
:101370000C4808B5816941F001018161816901F082
:1013800001010091C16941F08051C161C06900F063
:10139000805000900448416821F0E06141F0007104
:1013A000416008BD0010024000000140002809DB38
:1013B00000F01F02012191404009800000F1E0206F
:1013C000C0F8001170470000F0B40E4B1B680C46CB
:1013D000C3F30223C3F10705042D00D90425191D09
:1013E000072901D2002300E0DB1E012606FA05F1E1
:1013F000491E214099409E40761E16403143F0BC64
:1014000001F08ABC0CED00E0064900F00702086814
:101410004FF6FF03184040EA0220034A10430860D9
:10142000704700000CED00E00000FA052DE9F047E0
:101430000F46050061D0434E306800F00700B84207
:1014400009D2306820F0070038433060306800F07F
:101450000700B84251D128683B4C810712D540079C
:1014600003D5606840F4E06060602878000703D529
:10147000606840F4605060606068A96820F0F00027
:10148000084360602878C00728D06868012810D019
:101490002168022810D0890700292EDA616821F01E
:1014A000030101436160FFF723FF804641F2883961
:1014B0000DE021688903EFE78901EDE7FFF718FFE9
:1014C000A0EB0801494502D90320BDE8F087606818
:1014D000696800F00C00B0EB810FEFD1306800F0CC
:1014E0000700B8420BD9306820F00700384330605D
:1014F000306800F00700B84201D00120E5E7287805
:10150000400705D56068E96820F4E0600843606042
:101510002878000706D56068296920F4605040EA01
:10152000C100606000F038F86168084AC1F3031137
:10153000515CC8400649086006480068FFF7F8FE9D
:101540000020C2E70020024000100240AE40000828
:101550006C000020640000200448054900684968C8
:10156000044AC1F30221515CC84070476C0000205E
:1015700000100240BE400008044805490068496860
:10158000044AC1F3C221515CC84070476C0000207E
:1015900000100240BE40000812A185B00FC98DE8BE
:1015A0000F0014A0144A006804905168134801F019
:1015B0000C03042B10D0082B0ED1C1F38343C903B5
:1015C0001DF803000AD5516804AAC1F34041515CDB
:1015D0000A4A5043B0FBF1F005B070470849484350
:1015E000FAE7000002030405060708090A0B0C0DC0
:1015F0000E0F1010010200000010024000127A00CD
:1016000000093D002DE9F84F040070D02078C04D4E
:10161000C00749D06868C0F38100012807D0686816
:10162000C0F38100022809D16868C00306D5286884
:10163000800339D560680028E7D035E06068B0F5F0
:10164000803F0BD010B1B0F5A02F11D0286820F446
:1016500080302860286820F4802002E0286840F468
:1016600080302860606890B1FFF742FE06460AE0CD
:10167000286840F480202860F0E700BFFFF738FEBC
:10168000801B642873D828688003F7D50CE0FFF727
:101690002FFE064605E000BFFFF72AFE801B6428E8
:1016A000F0D828688003F7D420789A4E80074FF04E
:1016B00001094FF0000839D5686810F00C0F07D009
:1016C0006868C0F38100022809D16868C00306D4A5
:1016D0002868800714D52069012808D110E0206906
:1016E000B0B1C6F80090FFF703FE074605E00AE137
:1016F000FFF7FEFDC01B0228C4D828688007F7D575
:101700002868616920F0F80040EAC10028600DE017
:10171000C6F80080FFF7ECFD074604E0FFF7E8FDA0
:10172000C01B022823D828688007F7D42078000738
:101730002CD57948A169D9B1C0F80090FFF7D8FD40
:10174000074604E0FFF7D4FDC01B02280FD8686AE3
:101750008007F7D571484FF4FA510068B0FBF1F0FB
:10176000009000BF0098411E0091FAD20EE080E088
:10177000C0F80080FFF7BCFD074604E0FFF7B8FDA6
:10178000C01B022875D8686A8007F7D42078400704
:1017900060D5E8690027C00008D4E86940F08050AF
:1017A000E861E869012700F0805000905C4801681A
:1017B000C90513D40168834641F480710160FFF7C5
:1017C00097FD824606E000BFFFF792FDA0EB0A00FE
:1017D00064284ED8DBF80000C005F5D5E068012884
:1017E0000AD008B1052813D0286A20F00100286229
:1017F000286A20F0040002E0286A40F00100286214
:10180000E06841F2883B98B1FFF772FD82460BE039
:10181000286A40F004002862EEE700BFFFF768FD89
:10182000A0EB0A0159455AD8286A8007F6D50CE082
:10183000FFF75EFD824605E0FFF75AFDA0EB0A01C7
:1018400059454CD8286A8007F6D41FB1E86920F0C2
:101850008050E861E06988B36968C1F381010229B9
:1018600044D00228C6F8608004D0FFF741FD04464A
:1018700038E034E0FFF73CFD074604E0FFF738FDB1
:10188000C01B02282BD828688001F7D4206AB0F545
:10189000803F05D16868A16820F400300843686083
:1018A000D4E908010843696821F4741108436860A9
:1018B000C6F86090FFF71CFD044606E025E000BF77
:1018C000FFF716FD001B022809D828688001F7D50C
:1018D0001BE000BFFFF70CFD001B022802D903200C
:1018E000BDE8F88F28688001F4D40EE00128F7D015
:1018F0006868226A00F48031914204D1616A00F480
:101900007010884201D00120EAE70020E8E70000DB
:101910000010024000004242800442426C0000205D
:101920000070004010B5401EB0F1807F01D301204F
:1019300010BD4FF0E02460610F21601701F0ECF959
:101940000020A06107202061002010BD10B590F894
:101950003C20012A22D0012280F83C20CA688C68F1
:1019600022F4407222434C6822F4806222430C68C5
:1019700022F4006222430C6922F4805222434C6913
:1019800022F400522243C969002322F480420A4310
:1019900001684A6480F83C30002010BD022010BD70
:1019A00070B590F83C20012A26D0012480F83C40F4
:1019B000022280F83D2003685A689D6822F0700674
:1019C0000A6832435A600D4B02689A4208D0B2F15D
:1019D000804F05D00A4B9A4202D00A4B9A4204D15A
:1019E000496825F080031943916080F83D4000214B
:1019F00080F83C10084670BD022070BD002C0140EC
:101A0000000400400008004010B5040003D094F822
:101A10003D0010B107E0012010BD002084F83C001B
:101A2000204600F01FF8022084F83D00211D2068A8
:101A300000F0B0FE012084F8460084F83E0084F8EF
:101A40003F0084F8400084F8410084F8420084F8A4
:101A5000430084F8440084F8450084F83D000020E9
:101A600010BD000008B500680649884208D1064844
:101A7000816941F400618161806900F40060009037
:101A800008BD0000002C01400010024070B5044663
:101A900090F83C00012817D0012584F83C50022022
:101AA00084F83D002068826822F0770222F47F42A9
:101AB00082600868502830D00DDC20284DD005DC2D
:101AC00098B310283BD148E0022070BD302844D0A4
:101AD000402834D139E0602828D0702806D0B0F5ED
:101AE000805F2CD0B0F5005F29D10AE0CB68D1E946
:101AF0000121206800F091FE2068816841F07701A3
:101B000009E0CB68D1E90121206800F086FE206859
:101B1000816841F48041816011E0CA6849682068A9
:101B200000F030FF5021206807E016E0CA684968DD
:101B3000206800F038FF6021206800F078FE84F80B
:101B40003D50002084F83C0070BDCA684968206898
:101B500000F018FF40212068EFE722680146104698
:101B6000EBE72DE9F0410D46040003D094F83D0069
:101B700018B108E00120BDE8F081002084F83C00A5
:101B8000204600F041F8022084F83D00206881687A
:101B900044F2070291438160211D206800F0FAFDA4
:101BA000226890689169166A2B68AF69034340F216
:101BB0000330814341EA0721A868EF6908434FF6E3
:101BC000FC418843E96840EA0720014328692F6AFD
:101BD000000140EA0730084369686D6926F0220673
:101BE00046EA0515294393602268906154F8460B34
:101BF0000162012004F81F09E0752076E076207765
:101C0000A0750020B7E7000000B585B00021009165
:101C10000191029103910068B0F1804F16D10C48F8
:101C2000C16941F00101C161C16901F00101049183
:101C3000816941F0040181618069694600F0040016
:101C40000490032000900348FFF75CFA05B000BD44
:101C5000001002400008014070B590F83E60044654
:101C600090F83F5090F8423090F84320022021B184
:101C700004290ED0012E1BD114E0012E18D1012B06
:101C800016D184F83E0084F8420001220021206829
:101C900020E0012D0CD1012A0AD184F83F0084F8FC
:101CA000430014E0012D03D1012B01D1012A01D001
:101CB000012070BD84F83E0084F83F0084F84200A3
:101CC00084F8430001220021206800F099FD0122E0
:101CD0000421206800F094FD2068016841F00101B2
:101CE0000160002070BD000000B585B000210091AA
:101CF00001910291039100680B49884212D10B486F
:101D0000816941F0040181618069694600F0040045
:101D100004904FF44070009002200190039004481A
:101D2000FFF7F0F905B000BD002C014000100240A3
:101D30000008014070B5044690F83C000D460128AB
:101D40000AD0012084F83C0042B1042A18D0082AA5
:101D50002AD00C2A4DD139E0022070BD206800F055
:101D60006FFD2068816941F0080181612068816907
:101D700021F004018161206881692A69114311E021
:101D8000206800F085FD2068816941F4006181616F
:101D90002068816921F480618161206881692A69F4
:101DA00041EA0221816124E0206800F09DFD206865
:101DB000C16941F00801C1612068C16921F00401D5
:101DC000C1612068C1692A69114311E0206800F0EF
:101DD000B7FD2068C16941F40061C1612068C16933
:101DE00021F48061C1612068C1692A6941EA022148
:101DF000C161002084F83C0070BD10B5040003D020
:101E000094F83D0010B107E0012010BD002084F8D7
:101E10003C00204600F01EF8022084F83D00211D01
:101E2000206800F0B7FC012084F8460084F83E00EA
:101E300084F83F0084F8400084F8410084F84200B0
:101E400084F8430084F8440084F8450084F83D0099
:101E5000002010BD7047000010B50446022249B1B1
:101E600004290ED0082913D094F84100012816D077
:101E7000012010BD94F83E000128F9D184F83E20DD
:101E80000FE094F83F000128F2D184F83F2008E0E9
:101E900094F840000128EBD184F8402001E084F858
:101EA00041200122206800F0ABFC0F4920688842E5
:101EB00003D1426C42F4004242642068884208D058
:101EC000B0F1804F05D00949884202D008498842C4
:101ED00004D1816801F00701062903D0016841F0AF
:101EE00001010160002010BD002C014000040040F1
:101EF0000008004070477047F8B502680446106853
:101F0000D168536910F00F0F4FF0000553D003F064
:101F1000010601F4907737435FD0C20705D0CA05A8
:101F200003D5226C42F001022264420705D5DA078C
:101F300003D0226C42F002022264820705D5DA0740
:101F400003D0226C42F004022264020707D501F09C
:101F50002002324303D0226C42F008022264226C39
:101F6000002A34D0800604D5880602D5204600F029
:101F70009FFD20684069216CC0F38010090700D4E0
:101F800030B3204600F03CFD2068416949061BD56E
:101F9000416921F040014161A06BA8B158494163FA
:101FA000A06BFFF763F8002811D0A06B416B01B064
:101FB000BDE8F040084783060FD58B060DD52046B7
:101FC000BDE8F84000F074BD2046FFF794FFF8BD6F
:101FD0002046FFF790FF2564F8BD266B2023012ED5
:101FE00052D1C60650D5CE064ED510685068009026
:101FF000506940062AD5A16B086840680004000CAF
:10200000EAD0A68D8642E7D9E0858869202818D0D5
:10201000D06820F48070D0602068416921F001010F
:1020200041612068416921F04001416184F83E30FE
:1020300025632068C16821F01001C160A06BFEF724
:10204000F1FFA08DE18D401A81B219E0A08DE18DE4
:10205000401A81B2E08D0028BED00029BCD0D068E3
:1020600020F49070D0602068426922F00102426141
:1020700084F83E3025632068C26822F01002C260F6
:102080002046FFF737FFF8BD05062BD50D0629D5ED
:1020900094F83D002128F6D1A068B0F5805F01D109
:1020A0002069B0B1206A411C216221680078486033
:1020B000E08C401E0004000CE084E4D12068C1687C
:1020C00021F08001C1602068C16841F04001C16019
:1020D000F8BD206A0088C0F308005060206A801CA8
:1020E0002062E5E74006F3D54806F1D5D1682046E1
:1020F00021F04001D16084F83D3000F002F9F8BDD4
:10210000F129000870B5040004D094F83D000025C2
:1021100010B106E0012070BD84F83C50204600F06C
:1021200023F8242084F83D002068C16821F4005180
:10213000C160204600F02EFD2068016921F4904125
:1021400001612068416921F02A0141612068C1686C
:1021500041F40051C1602564202084F83D0084F8DA
:102160003E00002070BD000030B585B00024009412
:1021700001940294039400681B49884232D11B48A1
:10218000816941F480418161816901F48041049158
:10219000816941F0080181618069154D00F00800F6
:1021A0000490402000900220019003200390694693
:1021B0002846FEF7A7FF8020CDE90004694628469F
:1021C0000294FEF79FFF0B48416841F0E06141F047
:1021D00004014160002211462520FFF7F5F8252073
:1021E000FFF7E4F805B030BD0038014000100240B0
:1021F000000C01400000014090F83E30202B0ED131
:1022000059B152B190F83C30012B08D0012380F82D
:102210003C300023036300F019BD01207047022009
:102220007047000010B500680649884208D100F0E8
:102230009BFCBDE81040012203490448FFF7DCBFC6
:1022400010BD0000003801400000002024010020E3
:102250002DE9F843044690F83D001F4616460D460A
:1022600020284CD1C5B1BEB194F83C00012846D01D
:10227000012084F83C004FF00008C4F84080212081
:1022800084F83D00FFF734F8A6848146E684A06810
:10229000B0F5805F03D004E00120BDE8F883206939
:1022A00028B12E465FF0000584F83C800EE0002641
:1022B000FAE78021204600F0E4FCA0B9AEB116F8A0
:1022C000010B21684860E08C401EE084E08C4B46A6
:1022D0004FF0000200970028EBD14FF0400120465C
:1022E00000F0CFFC30B10320D7E735F8020BC0F384
:1022F0000800E6E7202084F83D000020CDE702201A
:10230000CBE77047FEE7000030B585B000241848E1
:102310000094019402940394816941F02001816149
:10232000816901F020010491816941F0040181611A
:10233000816901F004010491816941F00801816122
:1023400080690C4D00F0080004900022802128468E
:10235000FEF7C8FF802000900120CDE90104022093
:10236000039069462846FEF7CDFE05B030BD00005B
:10237000001002400008014010B596B000240F94F0
:1023800010941194129413941C2168461494FDF730
:10239000F8FE202107A8FDF7F4FE2D482B49C0E9DF
:1023A000001441F61F41C0E90241046144618461A7
:1023B000FFF72AFB08B172B6FEE74FF480500F908A
:1023C0000FA92348FFF762FB08B172B6FEE7204869
:1023D000FFF713FD08B172B6FEE7139413A91C486A
:1023E0001494FFF7DDFA08B172B6FEE760200090A2
:1023F00040F2D660CDE901040394049405940022D0
:10240000694613480694FFF795FC08B172B6FEE7DB
:10241000042269460E48FFF78DFC08B172B6FEE74C
:102420000794089409944FF400500A94CDE90B40A6
:1024300007A907480E94FFF789FA08B172B6FEE7BC
:102440000348FFF751FC16B010BD0000002C0140FE
:102450009400002010B58CB024216846FDF791FE51
:102460000024154809944FF080410A94C0E90014F3
:102470004FF6FF71C0E90241046184610320CDE998
:1024800000040120CDE902040494CDE9054007943D
:10249000694609480894FFF764FB08B172B6FEE785
:1024A000099409A904480A94FFF77AFA002801D090
:1024B00072B6FEE70CB010BDDC000020FEE7FEE7C0
:1024C0002DE9F041044690F83900002841D02168F8
:1024D000606BFEF794F807463946E069FEF795F819
:1024E000616AFEF73AF86062E16AFEF743FA01D2E8
:1024F000E56A07E0216B606AFEF746FA01D2256BB8
:1025000000E0656A6562D4E90001FEF778F80146EB
:10251000206AFEF77AF806463946A069FEF775F894
:102520002946FEF71AF83146FEF769F8A060E16A1D
:10253000FEF720FA01D2E06A07E0216BA068FEF7FF
:1025400023FA01D2206B00E0A068A06020686060E0
:102550000120BDE8F08190F83920012A0DD1012930
:102560000BD1826982F000428261C26982F000422E
:10257000C261026A82F00042026280F8381070473D
:102580002DE9F0411D460F460446DDE909C0DDE9AD
:1025900006131646089A84F83800002084F839C0DB
:1025A000606220606060A0606063B1F5000F01DBD5
:1025B000A16202E04FF07E50A0621946204600F072
:1025C0000CF82B46324639462046BDE8F04100F073
:1025D00035B8016070478068704770B50E46044694
:1025E000154611463046FEF7CFF923D9C4E90B65ED
:1025F00094F8390001281DD13146A068FEF7BAF9D8
:1026000001D2304607E02946A068FEF7BDF901D2A5
:10261000284600E0A068A0603146606AFEF7AAF98B
:1026200001D2354605E02946606AFEF7ADF900D3D0
:10263000656A656270BD4163704700002DE9F04135
:10264000044614481D46814222D2824220D285424D
:102650001ED204F10C000E4680E82600A161A76A94
:1026600010463946FDF7D1FF8046E06139462846DD
:10267000FDF7FDFF206294F83810012908D186F09B
:102680000041A16188F0004180F00040C4E90710DA
:10269000BDE8F0810000808010B5FEF729FE134CE4
:1026A000A168401A05281FD9FEF79EFCB4F9020064
:1026B000FEF7C2F801460E48FFF7BDFFD4E910014E
:1026C000FEF73CF901460A48FFF783FF0848FFF789
:1026D000F7FE0748FFF77FFFE061FEF7C7F800F05D
:1026E00013F8FEF705FEA06010BD000000000020FA
:1026F00030020020034800210268516300688163B2
:1027000070470000940000200749002300280A6851
:1027100003DD5063086883637047536301DAC0F1D7
:102720000000096888637047940000207047704774
:10273000FEF7E4BD30B58FB028216846FDF721FDD6
:1027400014210AA8FDF71DFD01210804CDE90010A0
:102750000024029402250491CDE907504FF4E010C3
:1027600009906846FEF74EFF08B172B6FEE70F20EB
:10277000CDE90A054FF48060CDE90C4002210AA89A
:102780000E94FEF753FE002801D072B6FEE70FB09C
:1027900030BD7047F0B50268164B174C174D4FF01F
:1027A0008047984205D0B84203D0A04201D0A84249
:1027B00003D122F070064A683243984205D0B842ED
:1027C00003D0A04201D0A84203D122F44074CA68C9
:1027D00022434C6922F08002224302608A68C2626E
:1027E0000A688262984201D109690163012141614D
:1027F000F0BD0000002C0140000400400008004033
:1028000010B501F01F030121046A99408C43046252
:10281000016A9A401143016210BD10B5846842EA12
:10282000032224F47F440A432243826010BD82685D
:1028300022F070020A4342F00701816070470000F5
:1028400030B5026A22F001020262026A43688469BA
:1028500024F073050C682C4322F002058A682A4391
:102860000A4DA8420BD122F00805CA6823F4407330
:102870002A434D6922F004021D438B692B434360B8
:10288000846149684163026230BD0000002C014050
:1028900030B5026A22F010020262026A436884695B
:1028A0000D6824F4E64444EA05248D6822F02002F1
:1028B00042EA05120B4DA8420ED1CD6822F08002EB
:1028C00042EA05124D6923F4406343EA85038D69AA
:1028D00022F0400243EA85034360846149688163D2
:1028E000026230BD002C014030B5026A22F48072D1
:1028F0000262036A4268C46923F4007324F073051A
:102900000C682C438D6843EA05230C4DA8420ED178
:10291000CD6823F4006343EA05234D6922F4405255
:1029200042EA05128D6923F4806342EA051242608F
:10293000C4614968C163036230BD0000002C0140DE
:1029400030B5026A22F480520262046A4268C369A6
:102950000D6823F4E64343EA05238D6824F400540C
:1029600044EA0534064DA84204D14D6922F4804260
:1029700042EA85124260C36149680164046230BD65
:10298000002C014010B5036A046A24F001040462BB
:10299000846924F0F00444EA021423F00A020A4392
:1029A0008461026210BD10B5036A23F01003036254
:1029B0008369046A23F4704343EA023224F0A003DB
:1029C00043EA01118261016210BD000010B5064C9E
:1029D0000021064A084621621154401CC828FBDB2E
:1029E000FEF786FC206310BD000000206801002077
:1029F00010B5406A0021C185C184FFF77CFA10BD83
:102A00000168CA6822F49072CA6001684A6922F0BB
:102A100001024A61016B012904D10168CA6822F0F0
:102A20001002CA60202180F83E1000210163704727
:102A300010B500F097FE154CE06210B314A100F041
:102A400083FE40B112A1E06A00F07EFE0069FDF74E
:102A500077FD606360800FA1E06A00F075FE58B1F9
:102A60000CA1E06A00F070FE0069FDF769FDC1B2DB
:102A7000A0630A48FFF76FFDE06ABDE8104000F070
:102A80003FBEBDE8104006A000F036B900000020AF
:102A90004443330044495233000000003002002018
:102AA0004A534F4E204552524F5221200D0A0000EA
:102AB00008B590F83E10222901D0022008BD826896
:102AC0004FF480539A4201D1016921B1816A9A423F
:102AD0001BD04AB10AE00268816A5268C2F3080258
:102AE0000A80816A891C08E0026972B10268526832
:102AF00002F07F020A70816A491C8162C18D491E01
:102B00000904090CC18503D019E002685268F1E795
:102B10000168CA6822F02002CA600168CA6822F40B
:102B20008072CA6001684A6922F001024A6120216C
:102B300080F83E10016B012903D0FFF773FB0020E2
:102B400008BD002101630168CA6822F01002CA6052
:102B500001680A68D20602D50A6849680091818D29
:102B6000FFF7C8F9EBE70000084810B502780A2A19
:102B700005D0074B016A5A54491C016210BD044834
:102B8000FFF756FFBDE81040FFF720BF0000002010
:102B90006801002070B5044600680169E26821F40C
:102BA0004051114301612169A068084361690843EC
:102BB0002168CA6841F20C639A430243CA602068E4
:102BC0004169A26921F44071114341611E492068A5
:102BD000884202D1FEF7D0FC01E0FEF7BDFC00EB1D
:102BE000C00101EB0012606864218000B2FBF0F3C9
:102BF000B3FBF1F36FF018067343B2FBF0F5B2FBD1
:102C0000F0F605EB8305322303EB0515B5FBF1F573
:102C1000B6FBF1F605F0F00505EB0615B2FBF0F694
:102C2000B2FBF0F0B0FBF1F06FF01802504306EB8E
:102C3000800003EB0010B0FBF1F0216800F00F0002
:102C40002844886070BD00000038014081628285A0
:102C5000C28500210164222280F83E2080F83C10C9
:102C60000168CA6842F48072CA6001684A6942F029
:102C700001024A610068C16841F02001C160002082
:102C800070472DE9F041984617460E460446069DCA
:102C90001DE0681C1BD02DB1FEF72AFBA0EB08003D
:102CA000A84214D92068C16821F4D071C16020689D
:102CB000416921F001014161202084F83D0084F840
:102CC0003E00002084F83C000320BDE8F08120682D
:102CD000006836EA000004D00020B842D9D00020B5
:102CE000F3E70120F9E700000148FFF705B900000C
:102CF00024010020FEE700000FB4054B10B503A926
:102D0000044A029800F04CF910BC5DF814FB000076
:102D10006D380008840000200907090E002804DB34
:102D200000F1E02080F80014704700F00F0000F17F
:102D3000E02080F8141D7047004870479000002084
:102D400030B528B1144C031F002021680A4605E065
:102D5000084630BD9A4203D810465268002AF9D17D
:102D6000002800D041680BD00468A3EB0005A54201
:102D700004D11B681C440346046002E0436000E089
:102D800023603AB11C68D51AA54203D115682C44BA
:102D90001C6052685A6030BD880000202DE9F04761
:102DA00082460F4C10480D4E0E4F001B4FF000088E
:102DB00020F007054FF0010900221146504600F0AF
:102DC000A9FD002802D1306810B10020BDE8F087CD
:102DD0003C60C4E90058C6F80090EDE78C00002084
:102DE00074020020880000207004002002E008C85F
:102DF000121F08C1002AFAD170477047002001E075
:102E000001C1121F002AFBD1704700002DE9FF5FAE
:102E100082B00021DDE90430020DDDF840B003434B
:102E200018D044F61050A2F2FF3242431514119804
:102E300001281FD0A5EB0B00401C5FEA000A4FF0F1
:102E400000064E4FDFF83891B046504615D5CAF10E
:102E5000000413E0119801244AA3012801D16FEA6C
:102E60000B010298119AC0E90031C0E9024206B094
:102E7000BDE8F09FCBF10000DFE704460021404AA7
:102E8000491842EB0450CDE9001012E0E00707D0EA
:102E900032463B4640464946FDF722FF804689467A
:102EA00032463B4610461946FDF71AFF06460F46C6
:102EB0006410002CEAD1DDE90401DDE90023BAF158
:102EC000000F06DAFDF70CFF42464B46FDF708FF00
:102ED00005E0FDF777FF42464B46FDF773FF0446DA
:102EE0000E460022284BFDF711FD03D84FF0FF30AE
:102EF000014607E00022254B20463146FDF7F5FB51
:102F0000FDF7DBFF102409E0002C0ADB0A22002376
:102F1000FDF75AFD039B30321A55641E50EA010238
:102F2000F2D1641C039AC4F111031444119A012ACA
:102F300003D0012208430DD10AE0084304D0002049
:102F40004FF0110B119072E7A3EB0B056D1E0DE016
:102F50005B4504DD4FF0000205F1010504E003DAF2
:102F60004FF00002A5F10105002AECD0029811995A
:102F7000C0E90231C0E9004579E7000000001440D3
:102F80000000F03F300000000000F0430000E03F90
:102F900030380A2801D20120704700207047000015
:102FA0002DE9FF4F95B09B468946064600250FE266
:102FB000252877D100242746F84A0121059400E00E
:102FC000044316F8013F203B01FA03F01042F7D109
:102FD00030782A2811D06FF02F033078A0F130021A
:102FE000092A16D8059A44F0020402EB820203EB88
:102FF00042021044761C0590EFE759F8042B059225
:10300000002A03DA504244F40054059044F00204CC
:10301000761C30782E2816D116F8010F44F00404DF
:103020002A280DD06FF02F023078A0F13003092B41
:1030300009D807EB870302EB4303C718761CF3E7B5
:1030400059F8047B761C30786C280FD006DC4C28AD
:1030500017D068280DD06A2814D104E0742810D045
:103060007A280FD10DE044F400140AE044F48014EF
:1030700001E044F440147278824202D104F58014D5
:10308000761C761C307866280BD013DC582877D055
:1030900009DC002875D04528F6D04628F4D047280A
:1030A0001AD19DE118E0632835D0642879D06528CD
:1030B00012D195E1702873D008DC6728F1D0692817
:1030C0006FD06E280DD06F2806D1B5E073282CD0B4
:1030D000752875D0782874D05A46179990476D1C7A
:1030E00075E1C4F30250022809D003280DD0D9F8A5
:1030F000001004280DD00D6009F1040967E1D9F82A
:103100000010EA17C1E90052F6E7D9F800100D8067
:10311000F2E70D70F0E719F8041B8DF8001000209D
:103120008DF80100EA46012003E059F804AB4FF0A6
:10313000FF3061074FF0000102D40DE008F10101FA
:103140008846B9420FDA8045F8DB1AF808100029E2
:10315000F4D108E008F1010188468142FADB1AF84F
:1031600008100029F6D105985B46A0EB0807214618
:103170003846179A00F094FA284400EB080507E057
:103180004DE029E10DE01AF8010B5A4617999047D6
:10319000B8F10108F7D25B4621463846179A13E189
:1031A00042E00A220092C4F302524FF0000A022ABF
:1031B00008D059F804CB032A4FEAEC710AD00DE08D
:1031C00029E02AE009F1070121F00702F2E802C133
:1031D000914609E00FFA8CFC4FEAEC71042A03D106
:1031E0004FFA8CFC4FEAEC71002907DA0A460021FD
:1031F000DCF1000C61EB02012D2202E0220504D576
:103200002B228DF80420012203E0E20701D02022C6
:10321000F7E7904659E00A2102E010220DE0102164
:103220004FF0000A00910BE010224FF0000A44F02A
:1032300004040827009203E008224FF0000A0092DD
:10324000C4F30252022A05D059F804CB0021032A04
:1032500008D009E009F1070121F00702F2E802C1F4
:10326000914605E01FFA8CFC042A01D10CF0FF0CFA
:103270004FF00008220728D5702806D0009B83F065
:10328000100353EA0A0305D00EE040228DF8042013
:10329000012208E05CEA010206D030228DF8042009
:1032A0008DF8050002229046009B83F0080353EA44
:1032B0000A030AD15CEA010201D1620705D5302276
:1032C0008DF804204FF001087F1E582804D034A048
:1032D00003900EA802900DE036A0F9E75346604631
:1032E000009AFDF771FB84460398825C0298401EA9
:1032F000029002705CEA0100F0D1029806A9081A57
:1033000000F1200A600702D524F4803400E0012790
:10331000574502DDA7EB0A0000E0002000EB0A01A0
:10332000009005984144401A0590E00306D45B469E
:103330002146179A059800F0B3F90544002706E0E6
:1033400001A85A46C05D179990476D1C7F1C4745E0
:10335000F6DBE0030CD55B462146179A059800F092
:103360009FF9054404E030205A46179990476D1C98
:103370000099481E00900029F5DC08E002980299A7
:103380005A460078491C0291179990476D1CBAF172
:103390000001AAF1010AF1DC65E100000928010041
:1033A00030313233343536373839616263646566BB
:1033B000000000003031323334353637383941427D
:1033C000434445460000000000F058F90544761CCF
:1033D000307800287FF4ECAD19B02846BDE8F08FB6
:1033E000620700D4062709F1070222F0070CFCE867
:1033F0000223E14603F000485FEA080C02D00FF216
:10340000702C0DE05FEA045C02D50FF2682C07E037
:103410005FEAC47C02D00FF2602C01E0AFF2700CC6
:103420004FF0FF3823F00043CDF850C065280CD092
:1034300006DC452809D046281DD047283DD13DE06F
:10344000662818D067287ED138E00021112F01DBD3
:10345000112000E0781CCDE9000106A90EA8FFF7B5
:10346000D5FCDDE90F010E9A03910021009207F1CE
:10347000010A04914DE04FF000400097CDE90110A2
:1034800006A90EA8FFF7C2FCDDE90F0203920E9B0E
:1034900011990022DDF80CA00093049211B9791C57
:1034A00000EB010AB7EB0A0004D4C0F1FF3007F1CA
:1034B000010A0490AAEB0700019044E0012F00DA12
:1034C00001270021112F01DD112000E03846CDE950
:1034D000000106A90EA8FFF799FCDDE90F010E9A7D
:1034E0000391002104910092BA4621070CD403995C
:1034F000514500DA8A46BAF1010F05DD009AAAF1BA
:103500000101515C302908D0B84202DA10F1040FF1
:1035100006DA0121CDE9011015E0AAF10101E9E780
:10352000002805DC049901440491AAEB000102E0A3
:10353000411C514500DD8A460499401A401C019007
:103540004FF000400290200704D40198504501DB61
:10355000CDF8048000208DF84F0002980DF14F0740
:10356000B0F1004F25D02B200E9002984FF00208AA
:1035700000280CDA404202902D200E9007E00A212C
:103580000298FDF70BFA3031029007F8011DB8F1EF
:103590000001A8F10108F2DC02980028EFD1791EA1
:1035A0000E980870307800F0200040F0450007F8D1
:1035B000020D12A8C01B00F107081498007800B192
:1035C000012000EB0A01019801EBE07105984144EC
:1035D000401A401E0590E00306D45B462146179A28
:1035E000059800F05DF805441498007818B15A4623
:1035F000179990476D1CE00324D55B462146179A26
:10360000059800F04DF805441CE00498002807DBFD
:10361000DDE90301884203DD0098405C179901E071
:10362000179930205A469047049805F10105401C2F
:1036300004900198401E019004D12E205A461799FB
:1036400090476D1CBAF10001AAF1010ADDDC05E02A
:1036500017F8010B5A46179990476D1CB8F10001F5
:10366000A8F10108F4DC5B462146179A0598ABE601
:103670002D0000002B000000200000002DE9F0418B
:10368000044600251E461746880404D405E0394642
:103690002020B0476D1C641EF9D52846BDE8F08196
:1036A0002DE9F041044600251E469046C80301D589
:1036B000302700E02027880404D505E0414638463D
:1036C000B0476D1C641EF9D52846BDE8F08110B5E1
:1036D00030B1036823B1D0E90121914201D204E065
:1036E000002010BD491C816020B1914202D25C5C77
:1036F000202CF7D99142F4D1491E816010BD000001
:1037000070B504460F4E19E0A0892568C0050AD49B
:10371000A06820B1FFF7F4FFA089C00503D4206999
:1037200008B171688847A089800503D4206A08B170
:10373000716888477168204688472C46002CE3D181
:1037400070BD000078000020002200F0A5B810B580
:10375000016828208847040002D02821FCF711FDC9
:10376000204610BD0022114600F06EB82DE9F0474A
:1037700088B00F4604469A4616461C216846FCF758
:1037800000FD2F480025002C0560456055D081467E
:10379000E7B3CDE900470295D9E90212D9F8100044
:1037A0000491CDE9052009F10800FFF7D0FF5FEA99
:1037B00000082BD000986F4608B1029808B1002786
:1037C0000BE00198042808D903221EA10098FCF7F9
:1037D000F8FC10B90298C01C02903846FFF777FF3A
:1037E0000146404600F038FB68B1BAF1000F13D033
:1037F0006846FFF76CFFDDE90101814203D20299BF
:103800000098405C40B14046FFF77AFFDDE90110C7
:1038100088420AD205460BE01EB10299009808447E
:103820003060404608B0BDE8F087081E00D0451E55
:103830000EB160193060C9E900450020F2E70000D0
:1038400070000020EFBBBF0070B515460E460400A7
:1038500009D0FCF7A1FC411C2B4632462046BDE8AE
:103860007040FFF783BF002070BD000013B54FF616
:10387000FF73012269460248FEF7EAFC00981CBD6E
:1038800024010020416A47F6FF72A1F5FE41FF398D
:1038900009B24262084670472DE9F0418846A8B354
:1038A000B8F1000F33D084680AB90AE024686CB319
:1038B000216A59B34046FCF776FC0028F6D120E097
:1038C00024681CB3266A5FEA0805F9D0002EF7D0F9
:1038D000B54218D002E098B16D1C761C2878FCF730
:1038E00031FC07463078FCF72DFC87422878F2D06F
:1038F000FCF728FC05463078FCF724FC8542DFD134
:1039000024B1206A10B12046BDE8F081FFE7002015
:10391000FAE700002DE9F0410B3020F00706104DCA
:1039200019E02068B04215D3B0420AD9871B201D88
:10393000D4F80480FCF70CFCA019C0E900782860DA
:1039400004E060682860201DFCF702FC201D266052
:10395000BDE8F081251D2C68002CE2D10020F7E79E
:103960008800002086B0FDF7D1FCFEF7E3FEFEF7ED
:10397000CBFCFEF701FDFEF76DFD2D482B49002520
:1039800001604FF4E131C0E901150C21C560C0E9C7
:1039900004518561C561FEF7B5FB08B172B6FEE75B
:1039A000234804214838FEF757F921480021903870
:1039B000FEF752FA1E4804219038FEF74DFAFDF743
:1039C00097FC1C4C01228021A0601B48FDF78AFC5B
:1039D000D4E91601FCF7B2FF0746D4E91401FCF75D
:1039E000ADFF0646D4E91201FCF7A8FFD4E9032392
:1039F00001460120CDE9022001930495A0690090C1
:103A00003B4632460D48FEF7BBFD21790B48FEF7D9
:103A1000A2FD012221460648FEF7EEFB606B08B9C5
:103A2000FEF768FEFEF738FEF8E7000000380140B8
:103A30002401002000000020000801403002002086
:103A40002DE9F04107460025C8680C462E46B0F522
:103A50007A7F5BD2401CE0602168A068095C5B292A
:103A600054D1401CA0602046FFF731FE4CB1D4E990
:103A70000110884203D22268125C5D2A33D088424A
:103A800003D3A068401EA06040E0401E04F110086F
:103A9000A0604046FFF75BFE98B30DB33060466010
:103AA0000646A068401CA0602046FFF710FE214695
:103AB000304600F0D1F930B32046FFF708FE14B3CA
:103AC000D4E90110884203D22168095C2C29E0D096
:103AD0006268904217D22168085C5D2813D102E029
:103AE00005462E46DDE7E068401EE06005B16E60E9
:103AF0002020C7E90250A068401CA0600120BDE85A
:103B0000F081FFE715B12846FFF7FAFD0020F6E740
:103B1000034610B500200246995CA1F13004092C3F
:103B200001D830380AE0A1F14104052C01D837381A
:103B300004E0A1F16104052C08D857380844032A91
:103B400000D20001521C042AE6D310BD002010BD93
:103B50002DE9F04192B04FF0000506460C004FF001
:103B60002E03284610953CD02168D1B36A4627E041
:103B700027683944415C34291BD00ADCA1F12B07AA
:103B8000092F23D2DFE807F0152215172215151586
:103B9000150038290DD006DC35290AD0362908D081
:103BA000372913D105E0392903D0452901D06529EA
:103BB0000CD1115400E01354401C3F2806D22CB104
:103BC000A168D4F804C00F186745D1D315549046A6
:103BD00010A9104600F0F4F90F46109905468845E3
:103BE00003D1002012B0BDE8F081C6E90657114AA2
:103BF000114B28463946FCF789FE02D86FF0004089
:103C00000DE000220D4B28463946FCF767FE02D82E
:103C10004FF0004003E028463946FCF740FE706153
:103C20000820F060109AA168A2EB08000844A06088
:103C30000120D7E70000C0FFFFFFDF410000E0C127
:103C40002DE9F04107460026C8680C463546B0F518
:103C50007A7F78D2401CE060002C74D0D4E9011047
:103C6000884270D22168095C7B296CD1401CA0601D
:103C70002046FFF72CFDD4E90110884203D22268C8
:103C8000125C7D2A4CD08842A0F10100A0605AD27B
:103C900004F110084046FFF75AFDE8B3F6B128607A
:103CA00045600546A068401CA0602046FFF70FFD58
:103CB0002146284600F049F878B32046FFF707FD73
:103CC00028692862002028613CB3D4E901108842A9
:103CD00036D22168095C3A2932D102E006463546DF
:103CE000E0E7401CA0602046FFF7F1FC2146284693
:103CF00000F0B2F888B12046FFF7E9FCD4E90110E2
:103D0000884203D22168095C2C29C3D062689042A2
:103D100016D22168085C01E011E011E07D280FD186
:103D2000E068401EE06006B175604020C7E90260AF
:103D3000A068401CA0600120BDE8F08103E016B13E
:103D40003046FFF7DDFC0020F6E72DE9F84380461A
:103D50008B6808684FF00009C418CDF80090086817
:103D60000E46651CC15C641C22296ED1002271685C
:103D700008E0BCF15C0F04D17F1C8F4265D2521C5D
:103D8000641C641C271A8F4204D294F800C0BCF152
:103D9000220FEED1271A8F4257D22178222954D1EF
:103DA0001844201A801A3169401C884707004CD0FB
:103DB000009737E029785C2905D000986D1C00F841
:103DC000011B00902EE00220611B012939DB6A787B
:103DD000662A14D008DC222A12D02F2A10D05C2A9E
:103DE0000ED0622A2DD108E06E2A0ED0722A0ED093
:103DF000742A0ED0752A24D10DE0082200E00C228E
:103E0000009901F8012B00910BE00A22F8E70D223E
:103E1000F6E70922F4E76A462146284600F0DEF874
:103E200078B10544A542C5D3009981F800901021CE
:103E3000C8E903173068201A401CB0600120BDE8B3
:103E4000F88317B171693846884715B13068281A68
:103E5000B0600020F3E7000070B50C0005465ED0AE
:103E6000206800285BD0A16863680A1D9A4205D8C3
:103E70000844042231A1FCF7A4F978B3A068626871
:103E8000411D0126914206D82168052208442DA132
:103E9000FCF797F928B3A0686268011D914206D823
:103EA00021680422084429A1FCF78BF9E8B1D4E980
:103EB0000101814203D22268525C222A1DD0814234
:103EC00021D22268525C2D2A02D0303A092A1AD80F
:103ED00021462846BDE87040FFF73ABE0420E8605E
:103EE00006E0EE60A068401D04E002206E61E8601C
:103EF000A068001DA060012070BD21462846BDE8D5
:103F00007040FFF722BF814203D22268525C5B2AD5
:103F100007D0814203D22068405C7B2807D0002074
:103F200070BD21462846BDE87040FFF789BD214697
:103F30002846BDE87040FFF783BE00006E756C6CCC
:103F40000000000066616C736500000074727565A6
:103F5000000000002DE9F04704008A4616D054F80E
:103F6000047CD4F800903E1F564500D956462046A2
:103F7000FEF7E6FE05468846324621465046FFF7E4
:103F8000C9FC40B1C0F80090BDE8F087BDE8F0473B
:103F90000846FEF703BF44E9017955B129686A185C
:103FA000211F8A4202D9611B091F2960C5F80480BC
:103FB000EAE7024AC2F80080E6E700008800002035
:103FC00000B583B00A460021CDE9001101466846DC
:103FD000FCF787FDDDE9000103B000BD2DE9F047E6
:103FE00005460027481B1646894606285DDBA81CA7
:103FF000FFF78EFD0446A0F55C414FF480608142DE
:1040000053D3A4F55841824651451AD2A81DA9EBB5
:1040100000014FF00C08062947DB01785C2944D1E8
:104020004178752941D1801CFFF772FDA0F55C41F4
:1040300051453AD2C4F3090161F39F2000F5803065
:1040400002E04FF006082046802801D2012110E04E
:10405000B0F5006F02D20221C0270AE0B0F5803F20
:1040600002D20321E02704E0B0F5881F1DD204210D
:10407000F0274A1E08E000BF00F0BF03346843F099
:1040800080038009A354521E12F0FF02F4D10129CB
:1040900001D9384301E000F07F00326810703068C9
:1040A000084430604046BDE8F0870020FBE7000090
:1040B00000000000000001020304060708090000D8
:1040C00000000102030400404040404040404040A6
:1040D00041414141414040404040404040404040DB
:1040E00040404040404040050202020202020202FB
:1040F0000202020202020220202020202020202092
:104100002002020202020202909090909090101001
:10411000101010101010101010101010101010109F
:104120001010020202020202888888888888080823
:1041300008080808080808080808080808080808FF
:104140000808020202024000C74000086C41000853
:104150000000002094000000EC2D00080042000840
:1041600094000020DC070000FC2D00080000000087
:10417000000000000000000000F8E04500F8E0C585
:10418000000000000AD7A33B000000000000000070
:10419000000000000000000000000000000000001F
:1041A000000000000000000000000000000000000F
:1041B000000000000000000000C06240000000009D
:1041C0000000694000000000000000000100000045
:1041D00010000000000000000024F40000000000B7
:1041E000000000009D2D0008412D0008553F0008EB
:1041F00000000000000000000000000000000000BF
:04000005080000ED02
:00000001FF
